:020000040000FA
:100000000C9458000C9480000C9480000C94800098
:100010000C9480000C9480000C9480000C94800060
:100020000C9480000C9480000C9480000C94800050
:100030000C9480000C9480000C9480000C94800040
:100040000C94B4050C9480000C9482050C945C050F
:100050000C9480000C9480000C9480000C94800020
:100060000C94FE050C948000000000002500280080
:100070002B00040404040404040402020202020229
:10008000030303030303010204081020408001025C
:1000900004081020010204081020000000080002DB
:1000A00001000003040700000000000000001D071D
:1000B00011241FBECFEFD8E0DEBFCDBF11E0A0E01E
:1000C000B1E0E6E3F1E102C005900D92A034B10782
:1000D000D9F722E0A0E4B1E001C01D92AC3AB2072A
:1000E000E1F710E0C8E5D0E004C02197FE010E94CE
:1000F0009308C735D107C9F70E9456070C94990891
:100100000C94000008950895AF92BF92CF92DF92B1
:10011000EF92FF920F931F93CF93DF936C017B01BC
:100120008B01040F151FEB015E01AE18BF08C0174D
:10013000D10759F06991D601ED91FC910190F081C0
:10014000E02DC6010995892B79F7C501DF91CF9183
:100150001F910F91FF90EF90DF90CF90BF90AF90E5
:100160000895FC01538D448D252F30E0842F90E0BD
:10017000821B930B541710F0CF96089501970895A2
:10018000FC01918D828D981761F0A28DAE0FBF2F6B
:10019000B11D5D968C91928D9F5F9F73928F90E0C1
:1001A00008958FEF9FEF0895FC01918D828D981730
:1001B00031F0828DE80FF11D858D90E008958FEF6D
:1001C0009FEF0895FC01918D228D892F90E0805C36
:1001D0009F4F821B91098F739927089583E092E0C6
:1001E0000E94E20021E0892B09F420E0822F08958B
:1001F00080E090E0892B29F00E94EE0081110C94A0
:1002000000000895FC01A48DA80FB92FB11DA35AB9
:10021000BF4F2C91848D90E001968F739927848F26
:10022000A689B7892C93A089B1898C918370806449
:100230008C93938D848D981306C00288F389E02DEA
:1002400080818F7D80830895EF92FF920F931F939B
:10025000CF93DF93EC0181E0888F9B8D8C8D981379
:100260001AC0E889F989808185FF15C09FB7F89485
:10027000EE89FF896083E889F989808183708064D1
:1002800080839FBF81E090E0DF91CF911F910F911C
:10029000FF90EF900895F62E0B8D10E00F5F1F4F2B
:1002A0000F731127E02E8C8D8E110CC00FB607FC3A
:1002B000FACFE889F989808185FFF5CFCE010E94C8
:1002C0000201F1CFEB8DEC0FFD2FF11DE35AFF4F33
:1002D000F0829FB7F8940B8FEA89FB898081806256
:1002E000CFCFCF93DF93EC01888D8823B9F0AA8913
:1002F000BB89E889F9898C9185FD03C0808186FDE1
:100300000DC00FB607FCF7CF8C9185FFF2CF80812F
:1003100085FFEDCFCE010E940201E9CFDF91CF91A1
:10032000089590E0FC01E656FF4F2491FC01EA5746
:10033000FF4F3491FC01EE58FF4FE491EE23C9F0DA
:10034000222339F0233001F1A8F4213019F12230B1
:1003500029F1F0E0EE0FFF1FE859FF4FA591B4918E
:100360008FB7F894EC91611126C030953E233C93F1
:100370008FBF08952730A9F02830C9F0243049F7FD
:10038000809180008F7D03C0809180008F77809363
:100390008000DFCF84B58F7784BDDBCF84B58F7DC0
:1003A000FBCF8091B0008F778093B000D2CF809147
:1003B000B0008F7DF9CF3E2BDACF3FB7F894809114
:1003C000A9019091AA01A091AB01B091AC0126B511
:1003D000A89B05C02F3F19F00196A11DB11D3FBF7D
:1003E000BA2FA92F982F8827BC01CD01620F711D4C
:1003F000811D911D42E0660F771F881F991F4A9546
:10040000D1F7089520918101260F3327331F213220
:100410003105ECF42091D901FC0190E080E024301A
:1004200069F082E00895A09181012191AC014F59BA
:100430005E4FA40FB52FB11D2C930196861798F32C
:1004400080918101680F6093810180E0089581E0CF
:1004500008951092D90181E08093D8011092B301E0
:1004600061E082E10E94910161E083E10E949101DB
:10047000E9EBF0E080818E7F808380818D7F8083B7
:1004800088E48093B80085E48093BC000895CF93FE
:10049000DF9391E0909360018823B9F0C091B80098
:1004A000D091BA008091BC008A7B8093BC0060E050
:1004B00082E10E94910160E083E10E9491010E942B
:1004C0002902D093BA00C093B800DF91CF9108956C
:1004D0008F929F92AF92BF92CF92DF92EF92FF9254
:1004E0000F931F93CF93DF93D0910202D13208F084
:1004F000D7C0182FC09101020E94DD016B017C0161
:100500008091D90181116BC082E08093D901109351
:10051000D8018FEF8093D7011092D601D093D501E7
:10052000A1EEB1E0E5EBF1E080E0D81391C01092CC
:10053000B4018091B401CC0FC82BC093B401809159
:10054000B301813009F088C01092B3010E94DD012F
:100550006B017C018091B4018093BB008091DB0131
:100560009091DC01A091DD01B091DE01892B8A2BF5
:100570008B2BA1F00E94DD010091DB011091DC01C9
:100580002091DD013091DE016C197D098E099F09F2
:10059000061717072807390708F442C08091BC00E6
:1005A00083FDD8CF85EC8093BC000E94DD016B01F8
:1005B0007C018091D901823009F450C08091D7012B
:1005C0008F3F09F46FC08091D701803209F46CC06D
:1005D0008091D701803309F469C084E026C08091FE
:1005E000DB019091DC01A091DD01B091DE01892B4E
:1005F0008A2B8B2B09F484CF0E94DD018090DB01D4
:100600009090DC01A090DD01B090DE016C197D09B5
:100610008E099F0986169706A806B90608F070CFBE
:100620008091DA010E94470285E01092E001109269
:1006300002021092DF01DF91CF911F910F91FF9085
:10064000EF90DF90CF90BF90AF909F908F900895E4
:100650009D9191938F5F69CF85EEA5CF8091DB014E
:100660009091DC01A091DD01B091DE01892B8A2BF4
:100670008B2B09F49ECF0E94DD010091DB011091CC
:10068000DC012091DD013091DE016C197D098E09BC
:100690009F09061717072807390708F08ACFC0CF28
:1006A00081E0C3CF80E0C1CF82E0BFCF83E0BDCF88
:1006B0000895E091B2018091B101E81730F4F0E0C3
:1006C000E05CFE4F808190E008958FEF9FEF0895EA
:1006D0009091B2018091B1012FEF3FEF981748F44C
:1006E000E92FF0E0E05CFE4F208130E09F5F9093C7
:1006F000B201C90108958091B1019091B201891BA5
:10070000990B0895CF92DF92EF92FF920F931F9370
:10071000CF93DF937C01CB018A012091DF0122235B
:1007200089F0EB016B01C40ED51ECC15DD0569F017
:100730006991D701ED91FC910190F081E02DC70105
:100740000995F3CF642F0E940202C801DF91CF9177
:100750001F910F91FF90EF90DF90CF900895CF936E
:10076000DF931F92CDB7DEB769832091DF0122238B
:10077000F9F020910202203258F021E030E0FC0133
:100780003383228390E080E00F90DF91CF91089532
:100790008091E001E82FF0E0EF51FE4F99819083C6
:1007A0008F5F8093E0018093020281E090E0ECCFC4
:1007B00061E0CE0101960E940202F7CF682F80EA25
:1007C00092E00C94AF0390E080E00895FC0101906A
:1007D0000020E9F73197AF01481B590BBC0183E0BA
:1007E00092E00C9484008F929F92AF92BF920F93ED
:1007F0001F93CF93DF93CDB7DEB7A1970FB6F894D1
:10080000DEBF0FBECDBF19A2423008F44AE08E0110
:100810000F5D1F4F842E912CB12CA12CA5019401AA
:100820000E947108E62FB901CA01EA30F4F4E05DD4
:10083000D801EE938D01232B242B252B79F790E003
:1008400080E0109719F0CD010E94E603A1960FB643
:10085000F894DEBF0FBECDBFDF91CF911F910F91F6
:10086000BF90AF909F908F900895E95CE1CFCF92B9
:10087000DF92EF92FF920F931F93CF9321E020938B
:10088000DF0128E5209301021092E001109202029C
:10089000880F991F0E94DE0381E00E9468020E9477
:1008A000DD016B017C018091D901811164C081E07F
:1008B0008093D9018093D8019FEF9093D701109234
:1008C000D6018093D5018093B4018091B401806BEF
:1008D0008093B4018091B301813009F08CC01092F3
:1008E000B3010E94DD016B017C018091B401809312
:1008F000BB008091DB019091DC01A091DD01B09102
:10090000DE01892B8A2B8B2BA1F00E94DD01009147
:10091000DB011091DC012091DD013091DE016C19C9
:100920007D098E099F09061717072807390708F45C
:1009300043C08091BC0083FDD8CF85EC8093BC0080
:100940000E94DD016B017C018091D901813009F4A5
:1009500054C08091D601823008F071C08091D601D8
:10096000E5EBF1E0A0E4B1E090E0981751F12191BE
:100970002D939F5FFACF8091DB019091DC01A091D4
:10098000DD01B091DE01892B8A2B8B2B09F48BCFF3
:100990000E94DD010091DB011091DC012091DD015D
:1009A0003091DE016C197D098E099F090617170722
:1009B0002807390708F077CF8091DA010E944702B3
:1009C00080E01092B2018093B1018230D0F180EAD0
:1009D00092E00E946803C82F80EA92E00E946803B8
:1009E00020E0822B9C2BCF911F910F91FF90EF90D5
:1009F000DF90CF90089585EEA1CF8091DB0190919B
:100A0000DC01A091DD01B091DE01892B8A2B8B2BBB
:100A100009F49ACF0E94DD010091DB011091DC0105
:100A20002091DD013091DE016C197D098E099F094D
:100A3000061717072807390708F086CFBDCF82E0D1
:100A40008FCF8FEF9FEFCFCF85ED8093BC0080914C
:100A5000DB019091DC01A091DD01B091DE010796F0
:100A6000A11DB11D23E0B695A795979587952A9569
:100A7000D1F72091BC0024FD03C01092D901089544
:100A80004091DB015091DC016091DD017091DE014C
:100A9000452B462B472B69F30097A105B10541F083
:100AA00025E32A95F1F700000197A109B109E1CFEB
:100AB0008091DA010C9447021F920F920FB60F92A9
:100AC00011242F933F934F935F936F937F938F9353
:100AD0009F93AF93BF93EF93FF9383E092E00E94C5
:100AE0000201FF91EF91BF91AF919F918F917F9103
:100AF0006F915F914F913F912F910F900FBE0F908B
:100B00001F9018951F920F920FB60F9211242F93DA
:100B10008F939F93EF93FF93E0911302F091140250
:100B20008081E0911902F0911A0282FD1BC0908130
:100B300080911C028F5F8F7320911D02821741F0FC
:100B4000E0911C02F0E0ED5FFD4F958F80931C0259
:100B5000FF91EF919F918F912F910F900FBE0F906A
:100B60001F9018958081F4CF1F920F920FB60F92AD
:100B700011242F933F938F939F93AF93BF938091B3
:100B8000A5019091A601A091A701B091A801309173
:100B9000A40123E0230F2D3758F50196A11DB11DA7
:100BA0002093A4018093A5019093A601A093A7018F
:100BB000B093A8018091A9019091AA01A091AB01E5
:100BC000B091AC010196A11DB11D8093A901909334
:100BD000AA01A093AB01B093AC01BF91AF919F91DB
:100BE0008F913F912F910F900FBE0F901F901895EE
:100BF00026E8230F0296A11DB11DD2CF1F920F929E
:100C00000FB60F9211242F933F934F935F936F93DF
:100C10007F938F939F93AF93BF93EF93FF938091B5
:100C2000B900887F803609F44AC0F0F5883209F4AB
:100C3000A7C018F5803109F49BC0B8F4882309F4E3
:100C4000F9C0883009F494C0FF91EF91BF91AF9142
:100C50009F918F917F916F915F914F913F912F91D4
:100C60000F900FBE0F901F901895883109F488C01F
:100C7000803251F78093D70114C0803409F49DC0AD
:100C800040F48033B9F38833F9F68093D70185ECCB
:100C9000B0C0803509F485C0883509F496C0883421
:100CA00099F60E942405D0CF883909F48CC038F514
:100CB000883729F050F4883611F0803729F683E020
:100CC0008093D9011092A30157C0883809F47BC0E2
:100CD000803919F0803809F0B7CF8091A3018032B4
:100CE00008F071C0E091A30181E08E0F8093A30111
:100CF0008091BB00F0E0ED57FE4F80833DC0803B0C
:100D000039F0E0F4803A09F479C0883A09F09CCFD0
:100D100084E08093D9011092820110928101E091C8
:100D2000AF01F091B00109958091810181110FC04F
:100D300081E0809381011092610109C0803C09F437
:100D4000A6CF883C09F4A3CF883B09F07DCFE09182
:100D5000820181E08E0F80938201F0E0EF59FE4F17
:100D600080818093BB00909182018091810129C094
:100D70008091B4018093BB0085EC8093BC0064CF6C
:100D80009091D6018091D501981758F5E091D60140
:100D900081E08E0F8093D601F0E0EB54FE4F80810E
:100DA000E9CFE091D60181E08E0F8093D60180914A
:100DB000BB00F0E0EB54FE4F80839091D601809110
:100DC000D5019817C8F285E8D8CFE091D60181E027
:100DD0008E0F8093D6018091BB00F0E0EB54FE4F64
:100DE00080838091D80181115CCF81E08093B30131
:100DF00084EA8093BC001092D90126CF85EC8093C1
:100E0000BC001092D9018091A301803230F4E091AE
:100E1000A301F0E0ED57FE4F10826091A30170E056
:100E2000E091AD01F091AE0183E891E00995109257
:100E3000A3010ACF1092D70134CFE3E0F2E013828E
:100E4000128288EE93E0A0E0B0E084839583A683CD
:100E5000B78324E031E03183208325EC30E035870F
:100E6000248724EC30E03787268720EC30E0318B74
:100E7000208B21EC30E0338B228B22EC30E0358B61
:100E8000248B26EC30E0378B268B118E128E138E3E
:100E9000148EE0EAF2E01382128284839583A683A3
:100EA000B78386E191E0918380830895789484B537
:100EB000826084BD84B5816084BD85B5826085BD56
:100EC00085B5816085BD80916E00816080936E00E4
:100ED00010928100809181008260809381008091D6
:100EE0008100816080938100809180008160809387
:100EF00080008091B10084608093B1008091B00047
:100F000081608093B00080917A00846080937A0041
:100F100080917A00826080937A0080917A0081606B
:100F200080937A0080917A00806880937A00109292
:100F3000C1001092B2011092B1010E94290282E810
:100F400090E09093B0018093AF0183E890E090939C
:100F5000AE018093AD01E0911302F091140282E0A2
:100F60008083E0910F02F09110021082E091110253
:100F7000F09112028FEC808310921B02E091170215
:100F8000F091180286E08083E0911502F09116023C
:100F9000808180618083E0911502F091160280814A
:100FA00088608083E0911502F0911602808180684C
:100FB0008083E0911502F091160280818F7D8083FD
:100FC00011E008E5C0E0D0E01093DF0100930102DA
:100FD0001092E0011092020290E080E00E94DE0395
:100FE00084E690E00E94DE0384E690E00E94DE0347
:100FF00081E00E94680281E090E00E9437044C0189
:1010000082E090E00E9437046C0184E291E00E944B
:10101000E603092C000CAA08BB084AE0C501B4018C
:10102000B7FE0DC06DE283E092E00E9424016627C6
:101030007727CB01681979098A099B094AE00E9440
:10104000F30380E391E00E94E6030D2C000CEE0810
:10105000FF084AE0C701B601F7FE0DC06DE283E06C
:1010600092E00E94240166277727CB016C197D0945
:101070008E099F094AE00E94F3038DE391E00E94EC
:10108000E6030E94DD014B015C0188EEC82E83E07F
:10109000D82EE12CF12C0E94DD01681979098A090A
:1010A0009B09683E734081059105A8F321E0C21AAF
:1010B000D108E108F10888EE880E83E0981EA11C93
:1010C000B11CC114D104E104F10429F7209709F4FB
:1010D0007BCF0E94EE00882309F476CF0E940000A7
:1010E00073CFA1E21A2EAA1BBB1BFD010DC0AA1FC4
:1010F000BB1FEE1FFF1FA217B307E407F50720F081
:10110000A21BB30BE40BF50B661F771F881F991FFB
:101110001A9469F760957095809590959B01AC0144
:10112000BD01CF010895EE0FFF1F0590F491E02D52
:101130000994F894FFCF0000000024018400B1005E
:101140007101E200C000D40000000000AF03820380
:10115000E30358037B0368035903456E636F6465BB
:101160007220313A200009456E636F646572203247
:061170003A20000D0A0008
:107E0000112484B714BE81FFF0D085E080938100F7
:107E100082E08093C00088E18093C10086E0809377
:107E2000C20080E18093C4008EE0C9D0259A86E02C
:107E300020E33CEF91E0309385002093840096BBD3
:107E4000B09BFECF1D9AA8958150A9F7CC24DD24C4
:107E500088248394B5E0AB2EA1E19A2EF3E0BF2EE7
:107E6000A2D0813461F49FD0082FAFD0023811F036
:107E7000013811F484E001C083E08DD089C08234E0
:107E800011F484E103C0853419F485E0A6D080C0E4
:107E9000853579F488D0E82EFF2485D0082F10E0AE
:107EA000102F00270E291F29000F111F8ED06801E7
:107EB0006FC0863521F484E090D080E0DECF843638
:107EC00009F040C070D06FD0082F6DD080E0C81688
:107ED00080E7D80618F4F601B7BEE895C0E0D1E017
:107EE00062D089930C17E1F7F0E0CF16F0E7DF06D8
:107EF00018F0F601B7BEE89568D007B600FCFDCFD4
:107F0000A601A0E0B1E02C9130E011968C91119780
:107F100090E0982F8827822B932B1296FA010C0160
:107F200087BEE89511244E5F5F4FF1E0A038BF0790
:107F300051F7F601A7BEE89507B600FCFDCF97BE46
:107F4000E89526C08437B1F42ED02DD0F82E2BD052
:107F50003CD0F601EF2C8F010F5F1F4F84911BD097
:107F6000EA94F801C1F70894C11CD11CFA94CF0C13
:107F7000D11C0EC0853739F428D08EE10CD085E9AC
:107F80000AD08FE07ACF813511F488E018D01DD067
:107F900080E101D065CF982F8091C00085FFFCCF94
:107FA0009093C60008958091C00087FFFCCF809118
:107FB000C00084FD01C0A8958091C6000895E0E648
:107FC000F0E098E1908380830895EDDF803219F02E
:107FD00088E0F5DFFFCF84E1DECF1F93182FE3DFCA
:107FE0001150E9F7F2DF1F91089580E0E8DFEE27F6
:047FF000FF270994CA
:027FFE00040479
:00000001FF
